:100000000C9462000C948A000C948A000C948A0070
:100010000C948A000C948A000C948A000C948A0038
:100020000C948A000C948A000C948A000C948A0028
:100030000C948A000C948A000C948A000C948A0018
:100040000C9471030C948A000C94E1030C94BB0390
:100050000C948A000C948A000C948A000C948A00F8
:100060000C948A000C948A000000000023002600F3
:10007000290000000008000201000003040700003E
:1000800000000000000000000000250028002B00F8
:1000900000000000240027002A00040404040404D3
:1000A0000404020202020202030303030303010227
:1000B00004081020408001020408102001020408F6
:1000C0001020B80411241FBECFEFD8E0DEBFCDBF93
:1000D00011E0A0E0B1E0E8E8FAE002C005900D927E
:1000E000A631B107D9F721E0A6E1B1E001C01D9228
:1000F000A23DB207E1F710E0C2E6D0E004C02197CC
:10010000FE010E943C05C136D107C9F70E941304C5
:100110000C9442050C9400008E50806480937C0007
:1001200080917A00806480937A0080917A0086FDC5
:10013000FCCF809178009091790008953FB7F894B2
:100140008091CE019091CF01A091D001B091D101C9
:1001500026B5A89B05C02F3F19F00196A11DB11D22
:100160003FBFBA2FA92F982F8827BC01CD01620F5E
:10017000711D811D911D42E0660F771F881F991F19
:100180004A95D1F70895AF92BF92CF92DF92EF9246
:10019000FF920F931F93CF93DF936C017B018B0131
:1001A000040F151FEB015E01AE18BF08C017D10781
:1001B00059F06991D601ED91FC910190F081E02D0B
:1001C000C6010995892B79F7C501DF91CF911F9160
:1001D0000F91FF90EF90DF90CF90BF90AF90089578
:1001E000FC01538D448D252F30E0842F90E0821B3D
:1001F000930B541710F0CF96089501970895FC01C2
:10020000918D828D981761F0A28DAE0FBF2FB11D19
:100210005D968C91928D9F5F9F73928F90E0089571
:100220008FEF9FEF0895FC01918D828D981731F02B
:10023000828DE80FF11D858D90E008958FEF9FEF7F
:100240000895FC01918D228D892F90E0805C9F4F55
:10025000821B91098F73992708958CE291E00E9487
:10026000210121E0892B09F420E0822F089580E00C
:1002700090E0892B29F00E942D0181110C9400003F
:100280000895FC01A48DA80FB92FB11DA35ABF4F2B
:100290002C91848D90E001968F739927848FA68985
:1002A000B7892C93A089B1898C91837080648C93D9
:1002B000938D848D981306C00288F389E02D808188
:1002C0008F7D80830895EF92FF920F931F93CF93BA
:1002D000DF93EC0181E0888F9B8D8C8D98131AC081
:1002E000E889F989808185FF15C09FB7F894EE8968
:1002F000FF896083E889F9898081837080648083C5
:100300009FBF81E090E0DF91CF911F910F91FF900F
:10031000EF900895F62E0B8D10E00F5F1F4F0F73B7
:100320001127E02E8C8D8E110CC00FB607FCFACF72
:10033000E889F989808185FFF5CFCE010E944101CE
:10034000F1CFEB8DEC0FFD2FF11DE35AFF4FF08243
:100350009FB7F8940B8FEA89FB8980818062CFCFA9
:10036000CF93DF93EC01888D8823B9F0AA89BB89EC
:10037000E889F9898C9185FD03C0808186FD0DC0D7
:100380000FB607FCF7CF8C9185FFF2CF808185FFF8
:10039000EDCFCE010E944101E9CFDF91CF910895C9
:1003A0004F925F926F927F928F929F92AF92BF9285
:1003B000CF92DF92EF92FF920F931F93CF93DF9331
:1003C000CDB7DEB7D2500FB6F894DEBF0FBECDBFAB
:1003D000EEE7F0E08491EAEBF0E09491E6EAF0E0F9
:1003E000E491EE2309F4B1C0882359F0833009F475
:1003F00095C008F088C0813009F496C0823009F4B5
:1004000097C0F0E0EE0FFF1FE859FF4FA591B491A0
:10041000EC919E2309F499C01092020110910201FF
:10042000112309F49BC08091000190910101019674
:10043000813B24E0920708F08CC0909301018093E7
:100440000001809100019091010190931901809326
:100450001801112309F49AC0809116019091170197
:100460000196893E43E0940708F08BC090931701F2
:1004700080931601809116019091170190931B01B2
:1004800080931A016E0161E0C60ED61E10E000E0F6
:1004900076018CE291E00E942101181619060CF0F9
:1004A00088C0011581E0180709F486C08CE291E04C
:1004B0000E94FF000F5F1F4FD6018D936D010E94B8
:1004C0009E004B015C0142E0442E512C612C712CAA
:1004D0000E949E00681979098A099B09683E734049
:1004E00081059105A8F3B8EE8B0EB3E09B1EA11C0D
:1004F000B11C4A9445284628472859F2412C512CD2
:1005000032014394E5CF8730B1F08830D1F08430A8
:1005100009F077CF809180008F7D03C080918000AB
:100520008F77809380006DCF84B58F7784BD69CF3E
:1005300084B58F7DFBCF8091B0008F778093B00022
:1005400060CF8091B0008F7DF9CF81E08093020170
:1005500065CF109201011092000173CF8EE00E94CE
:100560008C0020EB34E0DC010E9435052FEF33E0F6
:1005700040E050E00E94E504309301012093000127
:1005800060CF109217011092160174CF8FE00E9475
:100590008C0028EE33E0DC010E9435052FEF33E0BC
:1005A00040E050E00E94E5043093170120931601CB
:1005B00061CF012B09F47BC0D7012C918E010F5F15
:1005C0001F4F213031F0298381E08A8382E090E05F
:1005D00038C0F7013181333009F080C00280F381E7
:1005E000E02DFE27EF27FE2714968D919C919827EA
:1005F00089279827AF01480F591F29834B30510590
:1006000010F082E0E2CF3A83282F220F2B83EE0FE7
:10061000FF1FE85EFE4FD80130E020E012968217FF
:10062000930761F040815181329611965C93119746
:1006300012964C9312972F5F3F4FF0CF880F991F60
:100640000396F8012FEF3FEF4191242748E050E057
:10065000B9016170772736952795672B21F0B1E0B6
:100660002B27B0EA3B274150510991F7AF01401BBE
:10067000510B4817590744F3F801E80FF91F20837D
:100680007C01E2E0EE0EF11C8C0F9D1FDC01129646
:100690003C936801F60161916F018CE291E00E9448
:1006A0006301C601801B910B8E159F059CF3DE5FD5
:1006B0000FB6F894DEBF0FBECDBFDF91CF911F9173
:1006C0000F91FF90EF90DF90CF90BF90AF909F90F1
:1006D0008F907F906F905F904F90089529832A8329
:1006E00075CF1F920F920FB60F9211242F933F9345
:1006F0008F939F93AF93BF938091CA019091CB0149
:10070000A091CC01B091CD013091C90123E0230F1C
:100710002D3758F50196A11DB11D2093C901809375
:10072000CA019093CB01A093CC01B093CD018091ED
:10073000CE019091CF01A091D001B091D10101964D
:10074000A11DB11D8093CE019093CF01A093D00144
:10075000B093D101BF91AF919F918F913F912F9114
:100760000F900FBE0F901F90189526E8230F02964A
:10077000A11DB11DD2CF1F920F920FB60F9211245F
:100780002F933F934F935F936F937F938F939F9399
:10079000AF93BF93EF93FF938CE291E00E944101EE
:1007A000FF91EF91BF91AF919F918F917F916F9149
:1007B0005F914F913F912F910F900FBE0F901F901F
:1007C00018951F920F920FB60F9211242F938F93AB
:1007D0009F93EF93FF93E0913C01F0913D01808165
:1007E000E0914201F091430182FD1BC09081809114
:1007F00045018F5F8F7320914601821741F0E09190
:100800004501F0E0E45DFE4F958F80934501FF9137
:10081000EF919F918F912F910F900FBE0F901F908E
:1008200018958081F4CF789484B5826084BD84B5B6
:10083000816084BD85B5826085BD85B5816085BDDB
:1008400080916E00816080936E0010928100809193
:10085000810082608093810080918100816080931B
:100860008100809180008160809380008091B10040
:1008700084608093B1008091B00081608093B0006B
:1008800080917A00846080937A0080917A008260FF
:1008900080937A0080917A00816080937A008091C1
:1008A0007A00806880937A001092C100E0913C0148
:1008B000F0913D0182E08083E0913801F0913901AF
:1008C0001082E0913A01F0913B018FEC808310920D
:1008D0004401E0914001F091410186E08083E09184
:1008E0003E01F0913F01808180618083E0913E0173
:1008F000F0913F01808188608083E0913E01F0911A
:100900003F01808180688083E0913E01F0913F014A
:1009100080818F7D8083EAEBF0E02491E6EAF0E0CD
:1009200084918823C1F090E0880F991FFC01E05763
:10093000FF4FC591D491FC01EA57FF4FA591B491A7
:100940009FB7F8948881E22FE0958E2388838C915D
:10095000E823EC939FBFC0E0D0E00E94D001209735
:10096000E1F30E942D018823C1F30E940000F5CF1E
:10097000ECE2F1E01382128288EE93E0A0E0B0E0B6
:1009800084839583A683B78387E091E091838083F6
:1009900085EC90E09587848784EC90E09787868744
:1009A00080EC90E0918B808B81EC90E0938B828B3C
:1009B00082EC90E0958B848B86EC90E0978B868B15
:1009C000118E128E138E148E0895052E97FB1EF431
:1009D00000940E94FC0457FD07D00E94040507FC08
:1009E00003D04EF40C94FC0450954095309521951D
:1009F0003F4F4F4F5F4F089590958095709561954B
:100A00007F4F8F4F9F4F0895A1E21A2EAA1BBB1B49
:100A1000FD010DC0AA1FBB1FEE1FFF1FA217B307CA
:100A2000E407F50720F0A21BB30BE40BF50B661FE0
:100A3000771F881F991F1A9469F7609570958095A4
:100A400090959B01AC01BD01CF010895A29FB0011B
:100A5000B39FC001A39F700D811D1124911DB29FF2
:100A6000700D811D1124911D08950E942605B7FF68
:100A70000895821B930B0895EE0FFF1F0590F491CC
:080A8000E02D0994F894FFCF6A
:100A8800140001000000006301C300F000B0012160
:060A980001FF0013010044
:00000001FF
